:020000040800F2
:10000000E82600209D01000899280008A322000886
:10001000E5270008590200088F2F000800000000A3
:1000200000000000000000000000000005010008C2
:10003000790600080000000049010008812C000832
:10004000B7010008B7010008B7010008ED29000852
:10005000B7010008B7010008B7010008B7010008A0
:10006000B7010008B7010008B7010008B701000890
:10007000B7010008B7010008B7010008B701000880
:10008000B7010008B7010008B7010008B701000870
:10009000B7010008B7010008B7010008B701000860
:1000A000B7010008352D0008292D00081D2D000876
:1000B000412D0008B70100084D2D0008B7010008C8
:1000C000B7010008B7010008B7010008B701000830
:1000D000B7010008B7010008B7010008B701000820
:1000E0007B0600089D280008B7010008DFF810D043
:1000F00000F0A0F80048004759310008AFF3008035
:10010000E8260020224B19680868B0E8F00F80F359
:100110000988BFF36F8F4FF0000080F311884EF015
:100120000D0E70470000000006480068006880F36C
:10013000088862B661B6BFF34F8FBFF36F8F00DFE1
:1001400000BF00BF08ED00E0EFF30980BFF36F8F41
:100150000F4B1A6820E9F00F106008B54FF05000FF
:1001600080F31188BFF34F8FBFF36F8F04F0D8F97E
:100170004FF0000080F31188BDE808401968086856
:10018000B0E8F00F80F30988BFF36F8F704700BFAE
:100190005C000020EFF305807047000006488047B0
:1001A00006480047FEE7FEE7FEE7FEE7FEE7FEE75C
:1001B000FEE7FEE7FEE7FEE71B2D0008ED00000866
:1001C00040EA01039B0703D009E008C9121F08C0D9
:1001D000042AFAD203E011F8013B00F8013B521E59
:1001E000F9D27047D2B201E000F8012B491EFBD2D0
:1001F00070470022F6E710B513460A460446194632
:10020000FFF7F0FF204610BD30B50B460146002039
:100210002022012409E021FA02F59D4205D303FAC8
:1002200002F5491B04FA02F52844151EA2F1010249
:10023000F1DC30BD064C074D06E0E06840F00103FC
:1002400094E8070098471034AC42F6D3FFF752FF0A
:10025000BC660008DC660008FEE700002DE9FF47E9
:10026000794C00250195E06A04F0C2F9A06220698A
:10027000DFF8D8A1401C4FF4805920614946504610
:1002800000F042FBDFF8C8816E1E4FF0805708BBBC
:1002900020690F281ED2A07AE0B9607AE1798842FD
:1002A00018D1256101AA0121E06A04F0F5F904F0F2
:1002B000A5FD0246009501AB0621606A04F02EFF01
:1002C0002FE000BFC8F80070BFF34F8FBFF36F8FF0
:1002D000BDE8FF874946504600F016FB20B920696B
:1002E0000F2801D9A07A28B14946504600F00CFBEE
:1002F000F8B121E02561E068002807DD009501AB39
:1003000000220821606A04F009FFE5600121E06A2B
:1003100004F058F901AA0221E06A04F0BDF90120B5
:10032000A072002300961A460321A06904F0F6FE8D
:1003300085E0A07A01281AD04946504600F0E4FA38
:100340000028C5D1607AE1790843217A0843BFD0FB
:10035000002300961A460321A06904F0DFFE256100
:10036000A079401CC0B2A07103280ED067E02561BF
:10037000E07A38B10128D4D101AA1021E06A04F052
:100380008BF9CEE701AA0821F8E7607A43F2F2265A
:1003900001281BD1207AC8B9E0788DF80A002079AD
:1003A0008DF8090060798DF80B006572A571002247
:1003B00002A9284801F08EFA32460121254801F0B1
:1003C00071F801AA2021E06A04F066F9E0790128B9
:1003D00016D1207AA0B9A0788DF80E0060788DF83B
:1003E0000D0020788DF80C00E571A571002203A99D
:1003F000184801F0D1FA32460221164801F052F8AD
:10040000207A01281BD1607A012809D1A571657273
:1004100001AA2021E06A04F03FF9207A01280ED1D8
:10042000E07901280BD1A571E571A2786178207877
:1004300003F048FC01AA0421E06A04F02DF90198B8
:1004400000287FF43FAF43E718000020000C014074
:1004500004ED00E0280500202DE9FC5FDFF848B13D
:1004600000254FF4005A51465846019500F04CFAC9
:100470000126DFF838914E4C6F1E4FF08058D0B9EE
:10048000A07A012817D1E07A01281AD0E67201AAD1
:100490000221E06A04F000F9002300971A460321C4
:1004A000206A04F03BFE019828B1C9F80080BFF330
:1004B0004F8FBFF36F8F5146584600F025FA10B1A9
:1004C00024E0E572E3E7607A01281FD1A07920B12A
:1004D00001282DD002280AD132E0E0781F2825D04B
:1004E000401CE07001AA1021E06A04F0D5F8002356
:1004F00000971A460321206A04F010FE019828B1E3
:10050000C9F80080BFF34F8FBFF36F8F5146584635
:1005100000F0FAF9002833D1E079012830D1A07930
:10052000A0B1012830D002281AD135E0E670D9E711
:1005300020790C2802D0401C2071D3E72671D1E726
:100540006079632800D0401C6071CBE720781728C1
:1005500018D0401C207001AA2021E06A04F09CF809
:10056000002300971A460321206A04F0D7FD019862
:10057000002805D0C9F80080BFF34F8FBFF36F8FFD
:10058000BDE8FC9F2570E6E760783B2802D0401C60
:100590006070E0E76570DEE7A0783B2802D0401C81
:1005A000A070D8E7A570D6E7000C014004ED00E08C
:1005B0001800002010B586B003F0CEFB002003F039
:1005C000BBFB002204A91B4801F000F89DF81300B2
:1005D00000909DF811309DF8122017A101A802F09B
:1005E000D7FC0021022003F025FC164C012301A8B2
:1005F000D4E9001203F0BEFC1221022003F01AFC21
:10060000002205A90B4801F008F89DF8160000909B
:100610009DF815309DF814200BA101A802F0B8FC3C
:10062000D4E90012012301A803F0A4FC03F014FC98
:1006300006B010BD2805002025642F25642F2564F1
:1006400000000000080000202564483A25646D6E13
:100650003A2564730000000038B5064C0020009075
:100660006A460121E06A04F017F8E068401CE06087
:1006700038BD000018000020704710B54FF48050BE
:1006800000F046F8BDE810404FF4005000F040B8CC
:1006900072B6FEE770B5044600F040F90546601CEE
:1006A00002D004480078044400F038F9401BA0420E
:1006B000FAD370BD4C0000207CB5064601F0E0F98D
:1006C0000024124D0194B6F5805F03D0B6F5005FAB
:1006D00008D010E004F092FB0246009401AB062122
:1006E000A86906E004F08AFB0246009401AB0621EB
:1006F000286A04F013FD04F081FB0246009401AB6C
:100700000621E86904F00AFD7CBD00001800002005
:10071000044910B50A68024202D00860FFF7CCFF16
:1007200010BD0000140401402DE9F84FDFF8B89126
:10073000002409F1040A0AF1040B23460F270BF1E8
:10074000040EC9E00125A5402A40AA427DD1674E8A
:10075000D1F804C0ACEB0608B44532D014DCBCF1CF
:10076000030F3AD009DCBCF1000F2AD0BCF1010F15
:100770001CD0BCF1020F31D11DE0BCF1110F17D01C
:10078000BCF1120F2AD119E0B8F5881F19D006DC88
:10079000B8F5803F15D0B8F5801F1FD111E0B8F52E
:1007A000001F0ED0B8F5041F18D10AE0CB6815E081
:1007B000CB681B1D12E0CB6808330FE0CB680C330D
:1007C0000CE08B682BB1012B4FF0080303D045617F
:1007D00004E0042302E0056100E00023FF2A01D8C1
:1007E000064601E000F104064FEA840501D9A5F1AF
:1007F0002005D6F8008007FA05FC28EA0C0803FA61
:1008000005F548EA0508C6F800804D68ED0062D598
:10081000374DAE6946F00106AE61AD6924F00306BE
:1008200005F001050095334D06EB050CDCF808508A
:10083000A607360F07FA06F825EA0805DFF8B8809C
:10084000404503D14FF0000817E044E0DFF8AC80EA
:10085000404502D14FF001080FE0DFF8A480404589
:1008600002D14FF0020808E0DFF89880404502D13D
:100870004FF0030801E04FF0040808FA06F848EAD0
:100880000508CCF808804D68D9F80060ED034D46A6
:1008900001D5164300E096432E604D68DAF80060FB
:1008A000AD03554601D5164300E096432E604D68D2
:1008B000DBF80060ED025D4601D5164300E096438B
:1008C0002E604D68DEF80060AD02754601D5164316
:1008D00000E096432E60641C0D682A46E5407FF4D4
:1008E00031AFBDE8F88F0000000401400000111096
:1008F000001002400000014000080140000C0140CF
:1009000000100140001401408068084000D0012020
:1009100070470AB1016170470904FBE7014880682C
:10092000704700004C00002070B5040025D094F8FA
:100930003D00002520B984F83C50204600F050F9D5
:10094000242084F83D002068016821F00101016045
:100950002068016841F4004101602068016821F4C9
:100960000041016000F0B8FB4D4A6168914201D836
:100970004C4900E04C49884201D2012070BD4B49EE
:100980002368B0FBF1F15E6826F03F060E435E601F
:100990006368934206D94FF4967359434FF47A73C0
:1009A000B1FBF3F12368491C1E6A26F03F06314370
:1009B00019626168914210D84900401EB0FBF1F203
:1009C000521CC2F30B02042A01D2042022E0B0FB25
:1009D000F1F0401CC0F30B001CE0A268F2B301EB85
:1009E000C10303EB0116431EB3FBF6F35B1C43F498
:1009F00080431B0549D092B301EBC10202EB011108
:100A0000401EB0FBF1F0401CC0F30B0040F48040EE
:100A100040F400402168CA694CF6FF739A431043C2
:100A2000C861D4E9071001432068026822F0C002BF
:100A300011430160D4E9030101432068826848F250
:100A4000FF339A4311438160D4E9050108432168CB
:100A5000CA6822F0FF021043C86001E00EE016E011
:100A60002068016841F0010101602564202084F8BC
:100A70003D00256384F83E50002070BD01EB410627
:100A8000431EB3FBF6F35B1CB3E70120C2E701EBA7
:100A90004101401EB0FBF1F0401CC0F30B00B7E772
:100AA000A086010080841E0000093D0040420F0026
:100AB0002DE9FF4F83B09A46DDE91197934604462E
:100AC000DDF84080FFF72AFF054694F83D00202816
:100AD0007FD11923012240492046009501F074FC82
:100AE000002876D194F83C00012872D0012084F8C7
:100AF0003C0020680168C90703D1016841F0010189
:100B000001602068016821F400610160212084F8FF
:100B10003D00402084F83E0000262664C4F824806E
:100B2000A4F82A90608D20852C48E062CDE90075FC
:100B300053465A462046049901F0CCFB70B930E088
:100B40002A463946204601F0BEFC58B1206C0428E4
:100B500004D12068016841F400710160012007B0F0
:100B6000BDE8F08F606A216800780861606A401C07
:100B70006062218D491E89B22185628D521E628577
:100B800022685369DB435B070BD469B100781061BD
:100B9000606A401C6062208D401E2085608D401E72
:100BA0006085208D0028CBD12A463946204601F0A9
:100BB000E5FB0028CAD154F83D0B016841F40071EF
:100BC0000160202004F81E09E67766770020C6E75A
:100BD000FFE70220C3E70000020010000000FFFF53
:100BE00010B586B000210091019102910391006837
:100BF0000F4988421AD10F4CA06940F00800A0614B
:100C0000A069694600F008000490C02000901220FE
:100C10000190032003900848FFF786FDE06940F447
:100C20000010E061E06900F40010049006B010BD0F
:100C30000054004000100240000C0140024881684E
:100C400002781144816070474C000020074810B5BD
:100C5000016841F010010160032000F095F80020C8
:100C600000F006F800F03EF8002010BD0020024021
:100C700000B5014687B000221E2000F065F81E2056
:100C800000F054F81348C16941F00401C161C06922
:100C900005A900F004000690684600F0FDF900F098
:100CA0001BFA0D490D4AB0FBF1F10D48491E0260D7
:100CB000416040F2E7320021C0E90321816000F089
:100CC00053FF10B1012007B000BD054800F0BAFF86
:100CD000F9E700000010024040420F000008004009
:100CE000CC0500200F4808B5816941F00101816100
:100CF000816901F001010091C16941F08051C16138
:100D0000C069002200F0805000900F21901E00F07A
:100D10001BF80548416821F0E06141F00071416035
:100D200008BD00000010024000000140002809DB5F
:100D300000F01F02012191404009800000F1E020F5
:100D4000C0F8001170470000F0B40E4B1B680C4651
:100D5000C3F30223C3F10705042D00D90425191D8F
:100D6000072901D2002300E0DB1E012606FA05F167
:100D7000491E214099409E40761E16403143F0BCEA
:100D800002F01AB90CED00E0064900F0070208680D
:100D90004FF6FF03184040EA0220034A1043086060
:100DA000704700000CED00E00000FA050149012049
:100DB0000862704700000E4210B529A401461DCC00
:100DC00086B08DE81D002AA02A4C006804900020FF
:100DD000012923D002293AD010291DD16168226847
:100DE000D20119D5C1F38342C9031DF8020009D508
:100DF000616804AAC1F34041515C1F4AB2FBF1F1A2
:100E0000484301E01D4948436168490204D4400059
:100E10005FF00301B0FBF1F006B010BD226AC2F32F
:100E20000121012903D1920701D5C803F4E7022962
:100E300005D1626A920702D549F64040ECE70329E2
:100E4000EAD121688903E7D54FF22440E4E700F0B6
:100E500053F96168C1F38131491C4900DAE70000A8
:100E600002030405060708090A0B0C0D0E0F1010EB
:100E7000010200000010024000127A0000093D004B
:100E80002DE9F84305460078354CC00754D0E06999
:100E90000026C00008D4E06940F08050E061E069BD
:100EA000012600F0805000902E480168C90512D438
:100EB0000168804641F480710160FFF72FFD07460D
:100EC00005E000BFFFF72AFDC01B642823D8D8F82F
:100ED0000000C005F6D5206A10F4407021D0A98822
:100EE00001F4407181421CD0206A1F49012220F484
:100EF00040700A6000220A602062C00711D0FFF72C
:100F00000DFD074641F2883808E000BFFFF706FDF7
:100F1000C11B414502D90320BDE8F883206A800740
:100F2000F4D5206A696820F44070084320621EB13D
:100F3000E06920F08050E0612878800705D560687E
:100F4000A96820F44040084360602878C00605D5B1
:100F50006068E96820F48000084360600020DBE7F7
:100F60000010024000700040400442422DE9F0476A
:100F70000F46050061D0434E306800F00700B842CC
:100F800009D2306820F0070038433060306800F044
:100F90000700B84251D128683B4C810712D5400761
:100FA00003D5606840F4E06060602878000703D5EE
:100FB000606840F4605060606068A96820F0F000EC
:100FC000084360602878C00728D06868012810D0DE
:100FD0002168022810D0890700292EDA616821F0E3
:100FE000030101436160FFF799FC804641F28839B3
:100FF0000DE021688903EFE78901EDE7FFF78EFC3B
:10100000A0EB0801494502D90320BDE8F0876068DC
:10101000696800F00C00B0EB810FEFD1306800F090
:101020000700B8420BD9306820F007003843306021
:10103000306800F00700B84201D00120E5E72878C9
:10104000400705D56068E96820F4E0600843606007
:101050002878000706D56068296920F4605040EAC6
:10106000C100606000F058F86168084AC1F30311DC
:10107000515CC8400649086006480068FFF7F8FD63
:101080000020C2E7002002400010024098660008DD
:1010900058000020500000200F2202600C4A5368C4
:1010A00003F003034360536803F0F0038360536865
:1010B00003F4E063C36052684FF4E06303EAD202D2
:1010C00002610448006800F00700086070470000F3
:1010D00000100240002002400448054900684968A9
:1010E000044AC1F30221515CC840704758000020F7
:1010F00000100240A86600080448054900684968D5
:10110000044AC1F3C221515CC84070475800002016
:1011100000100240A866000812A185B00FC98DE832
:101120000F0014A0144A006804905168134801F09D
:101130000C03042B10D0082B0ED1C1F38343C90339
:101140001DF803000AD5516804AAC1F34041515C5F
:101150000A4A5043B0FBF1F005B0704708494843D4
:10116000FAE7000002030405060708090A0B0C0D44
:101170000E0F1010010200000010024000127A0051
:1011800000093D002DE9F84F040070D02078C04DD3
:10119000C00749D06868C0F38100012807D068689B
:1011A000C0F38100022809D16868C00306D5286809
:1011B000800339D560680028E7D035E06068B0F575
:1011C000803F0BD010B1B0F5A02F11D0286820F4CB
:1011D00080302860286820F4802002E0286840F4ED
:1011E00080302860606890B1FFF798FB06460AE0FF
:1011F000286840F480202860F0E700BFFFF78EFBEE
:10120000801B642873D828688003F7D50CE0FFF7AB
:1012100085FB064605E000BFFFF780FB801B6428C6
:10122000F0D828688003F7D420789A4E80074FF0D2
:1012300001094FF0000839D5686810F00C0F07D08D
:101240006868C0F38100022809D16868C00306D429
:101250002868800714D52069012808D110E020698A
:10126000B0B1C6F80090FFF759FB074605E00AE168
:10127000FFF754FBC01B0228C4D828688007F7D5A5
:101280002868616920F0F80040EAC10028600DE09C
:10129000C6F80080FFF742FB074604E0FFF73EFB7D
:1012A000C01B022823D828688007F7D420780007BD
:1012B0002CD57948A169D9B1C0F80090FFF72EFB71
:1012C000074604E0FFF72AFBC01B02280FD8686A14
:1012D0008007F7D571484FF4FA510068B0FBF1F080
:1012E000009000BF0098411E0091FAD20EE080E00D
:1012F000C0F80080FFF712FB074604E0FFF70EFB83
:10130000C01B022875D8686A8007F7D42078400788
:1013100060D5E8690027C00008D4E86940F0805033
:10132000E861E869012700F0805000905C4801689E
:10133000C90513D40168834641F480710160FFF749
:10134000EDFA824606E000BFFFF7E8FAA0EB0A00DC
:1013500064284ED8DBF80000C005F5D5E068012808
:101360000AD008B1052813D0286A20F001002862AD
:10137000286A20F0040002E0286A40F00100286298
:10138000E06841F2883B98B1FFF7C8FA82460BE06B
:10139000286A40F004002862EEE700BFFFF7BEFABB
:1013A000A0EB0A0159455AD8286A8007F6D50CE007
:1013B000FFF7B4FA824605E0FFF7B0FAA0EB0A01A6
:1013C00059454CD8286A8007F6D41FB1E86920F047
:1013D0008050E861E06988B36968C1F3810102293E
:1013E00044D00228C6F8608004D0FFF797FA04467C
:1013F00038E034E0FFF792FA074604E0FFF78EFA90
:10140000C01B02282BD828688001F7D4206AB0F5C9
:10141000803F05D16868A16820F400300843686007
:10142000D4E908010843696821F47411084368602D
:10143000C6F86090FFF772FA044606E025E000BFA8
:10144000FFF76CFA001B022809D828688001F7D53D
:101450001BE000BFFFF762FA001B022802D903203D
:10146000BDE8F88F28688001F4D40EE00128F7D099
:101470006868226A00F48031914204D1616A00F404
:101480007010884201D00120EAE70020E8E7000060
:1014900000100240000042428004424258000020F6
:1014A00000700040024800EB810091B2016070477B
:1014B000006C00407047704710B504460068016832
:1014C000C90716D04168C90713D0406840072046B5
:1014D00007D5FFF7F0FF21686FF004004860042093
:1014E00002E0FFF7E7FF0120607421686FF0010060
:1014F000486010BD7CB50024019400F0C1FA02F0F0
:101500002BFC002002F018FC0021022002F092FCCB
:1015100019480123D0E9001218A002F02BFD02F0B7
:101520009BFC194D009401AB00220821686A03F06E
:10153000F5FD03F063FC0246009401AB0721E86966
:1015400003F0ECFD11480068416B41F0E601416396
:1015500000210E4800F0B2FD0C210D4800F0FCFD0A
:101560000198002807D00B494FF080500860BFF366
:101570004F8FBFF36F8F7CBD080000205345542070
:10158000414C41524D00000018000020840500200D
:101590003C05002004ED00E010B504460068016839
:1015A000890709D54068800706D52046FFF7A2FFC6
:1015B00021686FF00200486003494FF40030086072
:1015C0000120607410BD000014040140F8B505004E
:1015D0004FF0000016460C46009006D02CB10022B9
:1015E0006946284600F019F808B10120F8BD287BAB
:1015F0002070E87BE070697B6170A97BA17056B1B7
:1016000001F05BF9E070607801F057F96070A07844
:1016100001F053F9A0700020F8BD2DE9F047914684
:101620000C465FEA00084AD084B3D8F8000040684E
:10163000400744D4404601F0E6F94FF461620546A4
:10164000B0FBF2F1B0FBF2F302FB13503C23B0FB12
:10165000F3F0B5FBF2F6607002FB1650B0FBF3F24C
:1016600003FB1200A070182931D31820B1FBF0F74A
:10167000B1FBF0F200FB12102070404601F0BCF903
:10168000411C04D0A84202D9461B02E017E04FF0EB
:10169000FF36A7EB071000EB4000C0EB001005EB96
:1016A000C0152946404601F0FDF940B9701C01D033
:1016B000711900E03146404601F0E0F910B1012017
:1016C000BDE8F0873946404601F002F900E021709C
:1016D000B9F1000F0BD0207801F0EFF8207060789E
:1016E00001F0EBF86070A07801F0E7F8A07000203E
:1016F000E6E7000070B5040003D0607C002610B15E
:1017000005E0012070BD2674204600F043F8022059
:101710006074204600F096F9042578BB204601F05D
:101720002EF958BB2068416821F007014160A0688C
:1017300020B11748016821F0010101601448001F21
:101740000168A26821F46071114301606068411C66
:1017500004D10120FFF730FB80B1401E21688A6868
:1017600022F00F0242EA10428A602168CA6860F3E0
:101770000F02CA60204601F01DF908B16574C0E788
:10178000E67301206073A0736074002070BD0000D8
:10179000306C004008B50068114988421FD1FFF73E
:1017A00005FB1048C16941F00061C161C0690E4983
:1017B00000F0006000900120086000220521032055
:1017C000FFF7C2FA0320FFF7B1FA00220521292012
:1017D000FFF7BAFABDE808402920FFF7A7BA08BD0D
:1017E00000280040001002403C0442422DE9F8432A
:1017F0004FF0000617460D46040000960FD075B155
:10180000207C01280ED04FF0010984F810900220AE
:101810006074002269462046FFF7FFFE20B10120D8
:10182000BDE8F8830220FBE79DF800004FF46161FA
:1018300048439DF80110C1EB011100EB81009DF8B8
:10184000021000EB01082878E7B101F02DF84FF401
:10185000616100FB01F7687801F026F8C0EB001029
:1018600007EB8007A87801F01FF83918414501D22D
:1018700016480144204601F001F970B1042060745B
:101880002674CCE74FF4616148436978C1EB0111DC
:1018900000EB8100A9780144E8E721686FF00200BD
:1018A00048602068016841F0020101600848016851
:1018B00041F40031016006480830016841F400310C
:1018C000016084F8119026740020A9E7805101007E
:1018D000000401402DE9F0410D4604003BD0C5B3A2
:1018E000207C01283AD04FF0010884F810800220B3
:1018F0006074E87872B300F0D7FFE073687800F0A6
:10190000D3FF6073A87800F0CFFFA073C2B2617BF1
:10191000E07B01F088F820732870204601F073F80E
:101920004FF46161B0FBF1F1002518292DD918227F
:10193000B1FBF2F1A1EB011101EB4101C1EB01118E
:1019400000EBC1163146204601F0ACF80427C8B9B7
:101950000BE000E004E00120BDE8F0810220FBE79D
:10196000E07368786073A878CFE7204601F044F808
:10197000411C0AD0B04208D206490144204601F079
:101980007DF810B167742574E5E784F8118025743B
:101990000020E1E7805101002DE9F0410D460400EF
:1019A00024D01DB3207C012823D04FF0010884F8F7
:1019B0001080022060742878EAB100F075FF4FF4BF
:1019C000616100FB01F6687800F06EFFC0EB00106B
:1019D00006EB8006A87800F067FF351829462046F8
:1019E00001F060F80026042710BB0FE00120BDE8DD
:1019F000F0810220FBE74FF4616148436978C1EB55
:101A0000011100EB8100A9784518E7E720684168DB
:101A100021F005014160204600F0EEFF411C0AD094
:101A2000A84208D206490144204601F027F810B127
:101A300067742674DAE784F8118026740020D6E7EC
:101A40008051010070B504000AD02068416821F07F
:101A500008014160FEF762FF05464FF47A7608E020
:101A6000012070BDFEF75AFF401BB04201D9032090
:101A700070BD206840680007F4D5002070BD0000EC
:101A800003480068C16841F00101C160704700006F
:101A9000CC05002003480068C16821F00101C16045
:101AA00070470000CC0500207047704710B590F8D3
:101AB0003C20012A22D0012280F83C20CA688C6890
:101AC00022F4407222434C6822F4806222430C6864
:101AD00022F4006222430C6922F4805222434C69B2
:101AE00022F400522243C969002322F480420A43AF
:101AF00001684A6480F83C30002010BD022010BD0F
:101B000070B590F83C20012A26D0012480F83C4092
:101B1000022280F83D2003685A689D6822F0700612
:101B20000A6832435A600D4B02689A4208D0B2F1FB
:101B3000804F05D00A4B9A4202D00A4B9A4204D1F8
:101B4000496825F080031943916080F83D400021E9
:101B500080F83C10084670BD022070BD002C01408A
:101B6000000400400008004010B5040003D094F8C1
:101B70003D0010B107E0012010BD002084F83C00BA
:101B8000204600F01FF8022084F83D00211D206847
:101B900001F0E2F8012084F8460084F83E0084F861
:101BA0003F0084F8400084F8410084F8420084F843
:101BB000430084F8440084F8450084F83D00002088
:101BC00010BD000008B51D4A01681D4891421ED194
:101BD000816941F4006181618069002200F4006044
:101BE000009005211920FFF7AFF81920FFF79EF8A4
:101BF000002205211A20FFF7A7F81A20FFF796F810
:101C0000002205211B20FFF79FF81B2010E0B1F1F7
:101C1000804F11D1C16941F00101C161C069002249
:101C200000F00100009005211C20FFF78DF81C201A
:101C3000BDE80840FFF77AB808BD0000002C01405D
:101C40000010024090F83D10012901D0012070479A
:101C5000022180F83D100168CA6842F00102CA60A2
:101C600000680B49884208D0B0F1804F05D009497F
:101C7000884202D00849884204D1816801F00701F6
:101C8000062903D0016841F001010160002070477E
:101C9000002C0140000400400008004070B50446DC
:101CA00090F83C00012817D0012584F83C50022010
:101CB00084F83D002068826822F0770222F47F4297
:101CC00082600868502830D00DDC20284DD005DC1B
:101CD00098B310283BD148E0022070BD302844D092
:101CE000402834D139E0602828D0702806D0B0F5DB
:101CF000805F2CD0B0F5005F29D10AE0CB68D1E934
:101D00000121206801F06BF82068816841F07701BB
:101D100009E0CB68D1E90121206801F060F8206872
:101D2000816841F48041816011E0CA684968206897
:101D300001F00AF95021206807E016E0CA684968F6
:101D4000206801F012F96021206801F052F884F84F
:101D50003D50002084F83C0070BDCA684968206886
:101D600001F0F2F840212068EFE7226801461046B2
:101D7000EBE7704770B50446006801694FF0000555
:101D8000C943890715D4C168C943890711D4E91E1D
:101D9000016101202077206880698007204602D0F9
:101DA000FFF7E7FF04E000F0CBF8204600F05AF917
:101DB000257720680169C943490717D4C168C94319
:101DC000490713D46FF004010161022020772068D5
:101DD000806910F4407F204602D0FFF7CAFF04E07C
:101DE00000F0AEF8204600F03DF925772068016943
:101DF000C943090716D4C168C943090712D46FF053
:101E000008010161042020772068C069800720460E
:101E100002D0FFF7AEFF04E000F092F8204600F099
:101E200021F9257720680169C943C90617D4C1681B
:101E3000C943C90613D46FF010010161082020774F
:101E40002068C06910F4407F204602D0FFF791FF60
:101E500004E000F075F8204600F004F925772068CA
:101E60000169C943C90708D1C168C943C90704D179
:101E7000891E0161204600F009FA20680169C94302
:101E8000090609D4C168C943090605D46FF0800169
:101E900001612046FFF708FE20680169C943490631
:101EA00009D4C168C943490605D46FF040010161F6
:101EB000204600F0F5F920680169C94389060BD472
:101EC000C168C943890607D46FF02001016120462B
:101ED000BDE87040FFF7E9BD70BD000010B586B0E9
:101EE00000210091019102910391124C0368124963
:101EF00002221248A34209D18B6943F004038B618B
:101F0000896901F004010491C1140BE0B3F1804F21
:101F10000ED18B6943F004038B61896901F00401E0
:101F200004910121CDE9001269460392FEF7FCFB02
:101F300006B010BD002C0140001002400008014016
:101F4000704770B5044690F83C000D4601280AD051
:101F5000012084F83C0042B1042A18D0082A2AD073
:101F60000C2A4DD139E0022070BD206800F04AFFF4
:101F70002068816941F0080181612068816921F050
:101F800004018161206881692A69114311E0206898
:101F900000F060FF2068816941F400618161206880
:101FA000816921F480618161206881692A6941EA3F
:101FB0000221816124E0206800F078FF2068C16977
:101FC00041F00801C1612068C16921F00401C161CB
:101FD0002068C1692A69114311E0206800F092FF6E
:101FE0002068C16941F40061C1612068C16921F4C0
:101FF0008061C1612068C1692A6941EA0221C16129
:10200000002084F83C0070BD10B5040003D094F8A3
:102010003D0010B107E0012010BD002084F83C0015
:10202000204600F01EF8022084F83D00211D2068A3
:1020300000F092FE012084F8460084F83E0084F807
:102040003F0084F8400084F8410084F8420084F89E
:10205000430084F8440084F8450084F83D000020E3
:1020600010BD704738B5114C002500956069401CC3
:102070006061052818D100210D4800F0CFF80C212F
:102080000C4800F0CBF865616A460421E06A02F072
:1020900003FB0098002807D007494FF080500860E4
:1020A000BFF34F8FBFF36F8F38BD000018000020C3
:1020B000840500203C05002004ED00E010B5044636
:1020C000022249B104290ED0082913D094F8410006
:1020D000012816D0012010BD94F83E000128F9D146
:1020E00084F83E200FE094F83F000128F2D184F8F4
:1020F0003F2008E094F840000128EBD184F840200C
:1021000001E084F841200122206800F05BFE0F49C5
:102110002068884203D1426C42F400424264206845
:10212000884208D0B0F1804F05D00949884202D0DA
:102130000849884204D1816801F00701062903D0CB
:10214000016841F001010160002010BD002C014038
:10215000000400400008004010B50446022249B1C6
:10216000042912D008291CD094F84100012823D05A
:10217000012010BD94F83E000128F9D184F83E20DA
:102180002068C26842F0020209E094F83F0001288A
:10219000EED184F83F202068C26842F00402C26099
:1021A0000EE094F840000128E2D184F84020206835
:1021B000C26842F00802F2E784F841200C2922D0DC
:1021C0000122206800F0FEFD11492068884203D1F9
:1021D000426C42F4004242642068884208D0B0F168
:1021E000804F05D00B49884202D00B49884204D168
:1021F000816801F00701062903D0016841F001015F
:102200000160002010BD2068C26842F01002C6E7DD
:10221000002C0140000400400008004030B5044696
:102220000D460068002200F0CDFD174B41F2111160
:1022300020688A10984209D1036A0B4206D1036ACA
:10224000134203D1436C23F4004343642068036AC0
:102250000B4206D1016A114203D1016821F001014C
:10226000016001203DB1042D08D0082D09D084F86B
:102270004100002030BD84F83E00FAE784F83F00BA
:10228000F7E784F84000F4E7002C014000680349B8
:10229000884201D1FEF7D2BC704700000008004020
:1022A0007047FEE701684A69D24352050FD46FF4C4
:1022B00080624A61002140F8301F202242738173FE
:1022C000026942F00402026101730120704700209C
:1022D000704700002DE9F843044600680D46DDE92B
:1022E000089701689846164641F4807101604B4694
:1022F00000224FF001112046009700F065F848B128
:1023000020680068C00502D54FF4007020640320E7
:10231000BDE8F883216805F0FE0008613B464A46A7
:102320001549204600F084F888B920684169806921
:1023300000903A464946204600F0C5F848B1206C66
:10234000042804D12068016841F400710160012073
:10235000DEE7F5B2B8F1010F09D02168300A086153
:102360003A464946204600F0AEF80028E7D12068FA
:1023700005610020CCE700000200010070B51646A0
:102380000D4604460DE02046FFF78CFF08B1012002
:1023900070BD681C05D0FEF7C1FA801BA84207D8A3
:1023A00035B120684069C0434007ECD4002070BDBF
:1023B000002044F8300F20216173A073216941F09F
:1023C000200121612073E2E72DE9F0471E46904687
:1023D0000D460446C1F30747DDF8209008E0701C65
:1023E00006D0FEF79BFAA0EB0900B0420FD876B1F9
:1023F0002068012F18D0806925EA00000004000C35
:1024000014D000214145EAD00020BDE8F08700202B
:1024100044F8300F20216173A073216941F020013D
:10242000216120730120F0E74069E5E70121E9E738
:102430002DE9F0479A4691460E46044600254FF096
:102440002008C1F3074725E020684069C0434005E4
:1024500014D42068016841F40071016021686FF4B0
:1024600080604861256384F83D8084F83E50206C8C
:1024700040F00400206484F83C501FE0B9F1FF3FB5
:1024800008D0FEF74BFAA0EB0A0149450CD8B9F188
:10249000000F09D02068012F13D0806926EA0000C0
:1024A0000004000C0BD0CFE744F8305F84F80D80B7
:1024B000A573206940F02000206125730120BDE84C
:1024C000F0874069EAE770B516460D4604460DE010
:1024D0002046FFF7E7FE08B1012070BD681C05D05B
:1024E000FEF71CFA801BA84207D835B12068406966
:1024F000C0430006ECD4002070BD002044F8300F2B
:1025000020216173A073216941F0200121612073B2
:10251000E2E7000010B5044A0021044800F02EFF55
:102520000349086010BD000074660008792C00089B
:102530004800002030B585B0002421480094019463
:1025400002940394816941F010018161816901F075
:1025500010010491816941F004018161816901F0F8
:1025600004010491816941F0080181618069154D80
:1025700000F008000490002210212846FEF7C9F957
:10258000102000900120CDE901040220039069464B
:102590002846FEF7C9F84FF4405000900A48CDE9AC
:1025A000010469460948FEF7BFF8002205212820EA
:1025B000FEF7CAFB2820FEF7B9FB05B030BD0000CE
:1025C000001002400008014000001110000C014002
:1025D0000D4810B50B4901600C49416000214FF4D2
:1025E00080428160C0E9031241618161C161016281
:1025F000FEF79AF9002803D0BDE81040FEF748B86E
:1026000010BD000000540040D4040020A08601004A
:102610001CB50020019000901A48194901604FF044
:10262000FF3141604FF480718160FFF763F808B1BA
:10263000FEF72EF821248DF8044016208DF80500B1
:1026400049208DF80600012201A90E48FFF7A4F9E0
:1026500008B1FEF71DF802208DF8000006208DF865
:10266000010022208DF802008DF803400122694606
:102670000448FFF72FF9002801D0FEF709F81CBD28
:10268000002800402805002010B596B000240F94C3
:1026900010941194129413941C2108A81494FDF71B
:1026A000A8FD20216846FDF7A4FD284826490160C1
:1026B00041F63F71C0E90114C910C0E90314446137
:1026C0008461FFF751FA08B1FDF7E2FF4FF4805043
:1026D0000F900FA91D48FFF7E1FA08B1FDF7D8FFE9
:1026E0001A48FFF791FC08B1FDF7D2FF139413A924
:1026F00016481494FFF704FA08B1FDF7C9FF6020EB
:10270000CDE908040A940C940D940C2208A90F48F2
:102710000E94FFF716FC08B1FDF7BAFF00944FF4D2
:102720000050CDE90440029401940394694607489F
:102730000794FFF7BBF908B1FDF7AAFF0348FFF7BD
:10274000CDFB16B010BD0000002C01403C05002060
:1027500010B58EB000240794089409940A940B9441
:102760001C2168460C94FDF744FD1D484FF0804144
:10277000C0E900144FF41671C0E90241046184619C
:10278000FFF7F2F908B1FDF783FF4FF4805007908F
:1027900007A91348FFF782FA08B1FDF779FF10483F
:1027A000FFF732FC08B1FDF773FF0B940BA90C483F
:1027B0000C94FFF7A5F908B1FDF76AFF6020CDE999
:1027C000000402940022694605480494FFF7B9FB0F
:1027D00008B1FDF75DFF0248FFF780FB0EB010BDAA
:1027E00084050020FEE7000010B501F0B5FA1A4C90
:1027F0000120A072002001F09FFAE07A174CC8B1C6
:10280000012828D10021022001F014FBD4E9001294
:10281000012313A001F0AEFB1221022001F00AFBFC
:10282000012312A0D4E9001201F0A4FBBDE810407E
:1028300001F012BB0021022001F0FCFAD4E90012E1
:1028400001230EA001F096FB1221022001F0F2FA02
:1028500001230DA0E6E710BD1800002008000020AD
:1028600053455420414C41524D0000003E20434806
:10287000414E47452054494D450000003E205345F8
:102880005420414C41524D00204348414E47452081
:1028900054494D4500000000FEE700000148FEF7E6
:1028A0007BBE000028050020010901EB810100F03A
:1028B0000F0000EB4100C0B27047002102E00A386F
:1028C000C0B2491C0A28FAD2090740EA11607047D1
:1028D0002DE9F04104460025C07B627BA37B42E0EA
:1028E000012A16D0032A14D0052A12D0072A10D0A4
:1028F000082A0ED00A2A0CD00C2A0AD0042A10D09A
:10290000062A0ED0092A0CD00B2A0AD0022A0DD092
:1029100028E01F2B0CD30C2A05D101221346401CA2
:1029200020E01E2B04D30123521C1BE01C2B02D2DF
:1029300003F1010316E011D183B29E0710D1642682
:10294000B3FBF6F706FB173636B94FF4C876B3FB80
:10295000F6F706FB17331BB91D2303E01D2B01D12E
:10296000032201236D1C8D42BAD3D1B2E07361738F
:10297000DAB2A27300F057F82073BDE8F08170B5A9
:102980000446FDF7CBFF05464FF47A7606E0FDF7E7
:10299000C5FF401BB04201D9032070BD20684068CC
:1029A0008006F4D52068416841F0100141600020A4
:1029B00070BD000070B504460068416821F0100148
:1029C0004160FDF7ABFF05464FF47A7607E000BFA4
:1029D000FDF7A4FF401BB04201D9032070BD206861
:1029E00040688006F4D5002070BD00000148FEF765
:1029F00063BD0000280500200168086A496A89B2A1
:102A000041EA00407047006881698AB2C1698BB2AF
:102A1000816989B28A4203D0C06961F31F4070475F
:102A200043EA02407047F0B56424C1EBC1030927B3
:102A3000A500072603EB01130329B3FBF7F100F50B
:102A4000FA60114401440AD2401EB0FBF4F201EBDB
:102A50009001B0FBF5F0891A0844001D08E0B0FBB6
:102A6000F4F201EB9001B0FBF5F0891A0844801CE8
:102A7000B0FBF6F106FB1100C0B2F0BD70B50D461B
:102A800006460024FFF77BFF48B93168280C08622E
:102A90003168A8B248623046FFF78CFF00B10124CC
:102AA000204670BD70B50D4606460024FFF767FF4F
:102AB00048B93168280C88613168A8B2C8613046CD
:102AC000FFF778FF00B10124204670BD08B5002053
:102AD000009003486A460421C06A01F0DDFD08BD8C
:102AE000180000201CB50020451E084C012601904E
:102AF000012300951A460821E06A01F0D5FD2672EF
:102B000001AA1021E06A01F0C7FDF1E718000020DA
:102B10001CB5002201A90F48FEF758FD0E4C9DF888
:102B200006000025E0709DF8050020719DF8070063
:102B30006E1E60710127012300961A461021E06A7B
:102B400001F0B2FD6772E2782179607900F02CF82B
:102B5000A572F0E728050020180000201CB500220F
:102B600001A90F48FEF759FD0E4C9DF80400002501
:102B700020709DF8050060709DF806006E1EA07024
:102B80000127012300961A462021E06A01F08CFDFE
:102B9000E771A2786178207800F03AF8A572F0E742
:102BA00028050020180000201FB50B46009010A13A
:102BB00001A800F0EDF9002001F0BEF8002102208C
:102BC00001F038F90D480123D0E900120CA001F002
:102BD000D1F923210F2001F02DF90C480123D0E970
:102BE000001201A801F0C6F901F036F91FBD00007E
:102BF00025642F25642F25640000000008000020B4
:102C000053657420446174653A0000001000002090
:102C10001FB500920B4602460FA101A800F0B8F9BB
:102C2000002001F089F80021022001F003F90D488D
:102C30000123D0E900120CA001F09CF9232105200A
:102C400001F0F8F80B480123D0E9001201A801F0C7
:102C500091F901F001F91FBD2564683A25646D3AC8
:102C600025647300080000205365742054696D6565
:102C70003A00000010000020012000F029FBFBE7D3
:102C800010B5502080F31188BFF34F8FBFF36F8FC3
:102C900002F0BCF818B104494FF0805008600020E1
:102CA00080F3118810BD000004ED00E030B593B052
:102CB00028216846FDF79DFA14210AA8FDF799FA24
:102CC000002401250F940A200090102010941194E4
:102CD000CDE90450CDE9065412946846FEF752FA45
:102CE00008B172B6FEE70F20CDE90A040C940D94EA
:102CF00000210AA80E94FEF739F908B172B6FEE772
:102D00004FF40070CDE90F500FA8FEF7B9F8002876
:102D100001D072B6FEE713B030BD70470148FFF72F
:102D200029B800003C0500200148FFF723B8000047
:102D30003C0500200148FFF71DB800003C050020BD
:102D40000148FFF717B80000840500200148FFF78D
:102D500011B80000CC050020F0B50268164B174CE6
:102D6000174D4FF08047984205D0B84203D0A0429B
:102D700001D0A84203D122F070064A68324398423B
:102D800005D0B84203D0A04201D0A84203D122F41A
:102D90004074CA6822434C6922F0800222430260D8
:102DA0008A68C2620A688262984201D10969016335
:102DB00001214161F0BD0000002C014000040040F1
:102DC0000008004010B501F01F030121046A99407A
:102DD0008C430462016A9A401143016210BD10B530
:102DE000846842EA032224F47F440A432243826037
:102DF00010BD826822F070020A4342F00701816030
:102E00007047000030B5026A22F001020262026AD5
:102E10004368846924F073050C682C4322F0020592
:102E20008A682A430A4DA8420BD122F00805CA68D5
:102E300023F440732A434D6922F004021D438B6939
:102E40002B434360846149684163026230BD0000E6
:102E5000002C014030B5026A22F010020262026AC0
:102E6000436884690D6824F4E64444EA05248D68C7
:102E700022F0200242EA05120B4DA8420ED1CD6885
:102E800022F0800242EA05124D6923F4406343EACE
:102E900085038D6922F0400243EA85034360846123
:102EA00049688163026230BD002C014030B5026A7E
:102EB00022F480720262036A4268C46923F40073D8
:102EC00024F073050C682C438D6843EA05230C4DF0
:102ED000A8420ED1CD6823F4006343EA05234D696F
:102EE00022F4405242EA05128D6923F4806342EADB
:102EF00005124260C4614968C163036230BD0000CD
:102F0000002C014030B5026A22F480520262046A49
:102F10004268C3690D6823F4E64343EA05238D68DC
:102F200024F4005444EA0534064DA84204D14D6906
:102F300022F4804242EA85124260C361496801641A
:102F4000046230BD002C014010B5036A046A24F00D
:102F500001040462846924F0F00444EA021423F0BA
:102F60000A020A438461026210BD10B5036A23F0AD
:102F7000100303628369046A23F4704343EA023254
:102F800024F0A00343EA01118261016210BDFEE753
:102F90000FB4084B10B504A902AA039800F02CF84E
:102FA000044602A9002000F0D1F8204610BC5DF8CC
:102FB00014FB00004D3100080907090E002804DB4E
:102FC00000F1E02080F80014704700F00F0000F1DD
:102FD000E02080F8141D704702E008C8121F08C1E5
:102FE000002AFAD170477047002001E001C1121F8A
:102FF000002AFBD1704700002DE9FF4F89B09B46A6
:103000000446002506E025280BD05A460B99904728
:10301000641C6D1C20780028F5D10DB02846BDE851
:10302000F08F0027B8460122474900E0074314F813
:10303000013F203B02FA03F00842F7D120782E2806
:1030400019D114F8010F47F004072A280ED06FF0A9
:103050002F022078A0F1300109290CD808EB880153
:1030600002EB410100EB0108641CF2E70A98641CC2
:1030700050F8048B0A9020780028CED0642808D01D
:10308000692806D075281ED05A460B9990476D1CAA
:1030900058E00A994FF00A0901C90A91002802DA9A
:1030A00040422D2102E0390504D52B218DF8201056
:1030B000012103E0F90704D02021F7E78A4608AE92
:1030C0000DE00021FAE70A994FF00A0901C90A91B7
:1030D000F7E74946FDF798F8303106F8011D00285A
:1030E000F7D1ADEB060000F12009780701D44FF0CD
:1030F0000108C84502DDA8EB090000E00020804679
:10310000002706E008A85A46C05D0B9990476D1C41
:103110007F1C5745F6DB04E030205A460B99904758
:103120006D1CB8F10001A8F10108F5DC05E016F806
:10313000010B5A460B9990476D1CB9F10001A9F19A
:103140000109F4DC641C65E7092801000A68531CC6
:103150000B601070704700001CB5384800900023C9
:103160000122322136A001F08FFF374E00230122C9
:10317000B0613648009041F2883135A001F084FFFB
:10318000F0613648009000230122322134A001F082
:103190007BFF306237480090002301224FF46171B9
:1031A00027A001F071FF002470620125CDE90054D1
:1031B0002346802230A1324801F0B4FDCDE900540D
:1031C000002380222FA1324801F0ACFDCDE900544C
:1031D000002380222FA1314801F0A4FDCDE9005445
:1031E000002380222EA1314801F09CFDCDE900543E
:1031F000002380222EA1324801F094FDCDE9005435
:10320000002380222FA1314801F08CFD01F0E2F96A
:10321000F062FDF71BFDFFF749FDFFF78BF9FFF7A4
:10322000D7F9FFF7F5F9FFF793FAFFF72DFA00F05A
:1032300069F8FFF76FF900F081F8FEE75D0200081A
:1032400054696D657200000018000020CD2A000846
:10325000536C6565705F54696D65720059040008B0
:103260004D656E755F43686F6963655F54696D6531
:10327000720000005906000853657454696D6500BA
:103280005D2B0008536574416C61726D0000000095
:10329000E52A00085365744461746500112B000829
:1032A000474F5F534C454550000000002142000845
:1032B00053637265656E52656672657368000000DF
:1032C000D14200084D656E7500000000A94200085B
:1032D00010B5EFF3058149B9EFF3108131B9084911
:1032E0000968022905D1EFF3118111B16FF00504CE
:1032F00003E0002408B100F0FFFF204610BD0000ED
:10330000AC000020EFF3058058B9EFF3108040B90E
:1033100009490868022801D030B109E0EFF31180B3
:1033200030B16FF005007047012008600020704741
:103330004FF0FF3070470000AC00002010B5EFF3F5
:10334000058060B9EFF3108048B90B49086802287E
:1033500002D0012806D00BE0EFF3118040B16FF0EE
:10336000050010BD0220086001F08EF8002010BD9D
:103370004FF0FF3010BD0000AC000020F0B585B06C
:103380004FEA01034FF00004EFF305810394A1BB62
:10339000EFF3108189BB21490968022902D1EFF3BB
:1033A000118151BB48B3802618218DF8104004AD1F
:1033B00042B3176807B13D4697691FB139467F1E72
:1033C000382F02D21779FF0702D0002005B0F0BDD8
:1033D000576907B1BE08D2F808C0BCF1000F0DD084
:1033E000D4685C2C18D312693AB137B18DE8061055
:1033F0003246294601F0C3FC03900DE0D7685FB95F
:1034000012694AB903AACDE90012B2B2294601F005
:1034100089FC012800D003940398D7E7AC00002072
:103420002DE9F041154C0F460546666921680020DC
:1034300081F85A002068001D00F0B2FD681C07D119
:1034400037B12168BDE8F0410D48091D00F008BE04
:1034500020683544B5424560216805D2A068BDE8C2
:10346000F041091D00F0E4BD6068091D00F0E0FDB9
:10347000206B854200D22563BDE8F0815C0000200E
:10348000040B00202DE9F041054600F0F5FD2D4C20
:103490002069401C206120682B4F10B1E06930B3D7
:1034A0002BE025602069012827D1002606EB860045
:1034B00007EB800000F0AEFD761C382EF6D32348D3
:1034C00000F0A8FD2148143000F0A4FD1F4828306A
:1034D00000F0A0FD1D483C3000F09CFD1B48503022
:1034E00000F098FD194860601430A06005E0206885
:1034F000E96AC06A884200D82560E06A401CE06240
:103500006864E86AA169884200D9A06100EB800084
:1035100007EB8000291D00F0A3FD00F0CDFDE06960
:1035200000280CD02068E96AC06A884207D208499E
:103530004FF080500860BFF34F8FBFF36F8FBDE82F
:10354000F08100005C00002054060020B40A002036
:1035500004ED00E038B500F08FFD104CA068C8B94C
:103560000F4800F057FD0E48143000F053FD0C4892
:103570002060143060600A4B00202833009003F173
:10358000500210210A2001F067F9A06010B105A1D6
:1035900000F010FEBDE8384000F08EBD980000201D
:1035A000180B0020546D72510000000030B4026C02
:1035B0000B46002A0BD0C1681144C1604468A14287
:1035C00001D30168C16030BC1846FCF7F9BD30BCBE
:1035D00070472DE9F041856B174604460026026CC2
:1035E00082B1C7B1E068FCF7EBFDE168206C091A15
:1035F000E1602268914202D26168081AE060022FFD
:1036000016D017E02068A8B9606801F063FC064690
:10361000002060600EE0A068FCF7D2FD216CA0687D
:103620000844A0606168884204D32068A06001E07B
:1036300005B16D1E6D1CA5633046BDE8F08110B567
:10364000044690F8590058B101280CD002280FD038
:10365000502080F31188BFF34F8FBFF36F8FFEE7C9
:10366000206B00F03DFD2046BDE8104000F038BD65
:1036700010BD000010484FF48051420706D0C01D15
:103680000D4920F00700411AC1F580510B4A002373
:103690000144C2E900030839103A21F00701116022
:1036A0004B600B600B1AC0E9001393604FF00040B1
:1036B0005360D06070470000E8120020C000002076
:1036C000144E154CA6F29C474FF08058DFF84C90F2
:1036D00012E000BF00F0D0FCF068C568281D00F0C3
:1036E0005FFC2069401E2061E068401EE06000F041
:1036F000E3FC2846FFF7A3FFE0680028EAD138681A
:103700000128F9D9C9F80080BFF34F8FBFF36F8F3D
:10371000F2E70000F00A00205C00002004ED00E069
:1037200070B51D46049C51B1C4F80020C4E90F01D6
:103730000121204601F0C4F884F84C5070BD24608B
:10374000F4E72DE9F0470E46DDE909841746824685
:1037500091009946089DA522206BFCF743FD6FF070
:103760000301206B01EB8701084420F0070778076D
:1037700007D0502080F31188BFF34F8FBFF36F8FB6
:10378000FEE72218315C82F83410315C11B1401C24
:103790001028F6D3002684F84360382D00D337254F
:1037A000E562C4E91356201D00F03FFC04F1180047
:1037B00000F03BFC2461C5F138006462A0616665DD
:1037C00084F8586084F85A604A465146384600F0FA
:1037D00067FA2060B8F1000F01D0C8F80040BDE8DA
:1037E000F0872DE9F0471E46DDE9089417460D00E5
:1037F00080460ED0002C14D0FFF7ACFEC4F8008039
:10380000C4E90657C4E90869201DBDE8F04700F087
:103810000CBC502080F31188BFF34F8FBFF36F8F24
:10382000FEE7BDE8F087000030B5114900E0114621
:103830000A688242FBD34B685C18844203D140681B
:1038400018444860084643681C18944209D1084C43
:10385000103C2468A24209D052681A4442600A68A7
:1038600012680260814200D0086030BD0460F9E750
:10387000C000002070B5002441600B4D00619142F2
:1038800006D8D11A8269914206D2011D686807E004
:103890009A4203D2994201D3012403E0011D286812
:1038A00000F0C6FB204670BD9800002010B504460D
:1038B00000F0E2FBA06B28B15FF0000400F0FCFB1D
:1038C000204610BD0124F9E730B589B0304D55E0F0
:1038D0000498002806DADDE90601059A9047049865
:1038E00000284BDB069C606910B1201D00F058FBDE
:1038F00002A800F0B9F8024604980A283ED2DFE890
:1039000000F00505053D263705053D260598A1690A
:10391000034601442046FFF7ADFF00B3616A20462D
:103920008847E069012829D1002000900598A16905
:10393000002342181946204601F0F0FB78B95020C8
:1039400080F31188BFF34F8FBFF36F8FFEE70598A9
:10395000A06128B1811813462046FFF78BFF0DE0C8
:10396000502080F31188BFF34F8FBFF36F8FFEE7B6
:1039700094F82C0010B9204600F0B2FB002204A9F4
:10398000A86801F0EFF80028A2D109B030BD00000E
:10399000980000202DE9FC410F46054600F0B8FDD7
:1039A00001A800F061F80446019818B101F00AFB83
:1039B000BDE8FC81224EAFB170680068A8B3002753
:1039C000291B3A46B06800F009FC01F0FBFA002818
:1039D000EED11C494FF080500860BFF34F8FBFF30A
:1039E0006F8FE5E7A542EBD801F0ECFA3068274687
:1039F000C068C468201D00F0D3FAE069012810D126
:103A0000A0692B4641193A462046FFF733FF40B1E3
:103A100000200346014600902A46204601F07EFB26
:103A200020B1616A20468847C2E707E0502080F352
:103A30001188BFF34F8FBFF36F8FFEE70127BFE7FA
:103A40009800002004ED00E006484168096829B1AB
:103A50004168C968C9684968016370474FF0FF3120
:103A6000FAE700005C00002070B5054601F0C0F9DF
:103A7000064E04463069844203D200F009F8012062
:103A800000E0002028602046346170BD98000020CE
:103A9000F8B5194D1FE0C068C4680668201D00F025
:103AA0007FFA616A20468847E069012813D1A0693E
:103AB0003044B04206D924616060211D286800F0BE
:103AC000B7FA08E00020034601460090324620463F
:103AD00001F024FB38B1286801680029DBD169684E
:103AE000C5E90010F8BD502080F31188BFF34F8F57
:103AF000BFF36F8FFEE70000980000200848406881
:103B0000401C4FF0500080F3118804D0BFF34F8F5A
:103B1000BFF36F8FFEE7BFF34F8FBFF36F8FFEE7EB
:103B2000C80000200346002012B1994302D070471C
:103B30000B42FCD001207047074C2068016841B15E
:103B4000C0680021D0F80000FFF724FFFFF7BCFE9B
:103B5000F3E701210020F7E7980000202DE9F0416C
:103B6000044600F089FA94F9455004F1240609E06E
:103B7000606A48B1304601F0EDF908B100F0EAFBA7
:103B80006D1E6DB2002DF3DC4FF0FF3684F84560FA
:103B900000F092FA00F070FA94F9445004F1100722
:103BA00009E0206948B1384601F0D4F908B100F0C5
:103BB000D1FB6D1E6DB2002DF3DC84F84460BDE8CE
:103BC000F04100F079BA00002DE9F04105460027E8
:103BD00000F09EFC314E306808B9FFF74BFDF068ED
:103BE00005424BD1C5B3083568070ED005F0070074
:103BF000C0F108000544680707D0502080F3118801
:103C0000BFF34F8FBFF36F8FFEE72DB37068854210
:103C100034D82248103001460C6801E020460C469A
:103C20006168A94202D221680029F7D131688C422B
:103C300024D007682168016060680837411B10299B
:103C40000FD96019420708D0502080F31188BFF3C4
:103C50004F8FBFF36F8FFEE710E041606560FFF7A5
:103C6000E3FD61687068401A7060B268904200D2EB
:103C7000B060F06801430020C4E9000101F0A2F93E
:103C8000780707D0502080F31188BFF34F8FBFF320
:103C90006F8FFEE73846BDE8F0810000B0000020DD
:103CA00010B5031F4FF080741C601B1F21F0010131
:103CB0001960191F024B0B60143940380A6010BD9F
:103CC000FD3A0008FEB514460D460646002202A93C
:103CD0000848FDF7A2FC00208DF8006001908DF8E7
:103CE000015002468DF8024069460248FDF77EFD0C
:103CF000FEBD00002805002070B5802813D24029A1
:103D000011D20B4B012401F007051E79AC40094B81
:103D1000C90800EBC1100EB132B101E0012A03D095
:103D2000195CA143195470BD195C2143FAE70000E6
:103D300000000020D400002010B5064A00214FF4F6
:103D4000806328B1FF245454491C9942F9D310BD13
:103D50000024F8E7D400002010B51E20FCF79AFCE0
:103D6000002000F06DF8202000F0E2F8002000F0C4
:103D7000DFF8B02000F0DCF8C82000F0D9F800200F
:103D800000F0D6F8102000F0D3F8402000F0D0F872
:103D9000FF2000F045F8A12000F0CAF8A62000F0AE
:103DA000C7F8A82000F0C4F83F2000F0C1F8A42014
:103DB00000F0BEF8D32000F0BBF8002000F0B8F807
:103DC000D52000F0B5F8F02000F0B2F8D92000F0CE
:103DD000AFF8222000F0ACF8DA2000F0A9F81220A9
:103DE00000F0A6F8DB2000F0A3F8202000F0A0F8F7
:103DF0008D2000F09DF8142000F09AF8012000F0CA
:103E00001FF80020FFF798FF00F026F80348002174
:103E10000180418001214171084610BD0000002051
:103E200010B50446812000F083F82046BDE810401C
:103E300000F07EB8014A10805180704700000020D9
:103E4000044910B1AF20012201E0AE2000228A71A6
:103E500000F06EB80000002070B50C4D002400BFCB
:103E600004F1B000C0B200F063F8002000F060F888
:103E7000102000F05DF805EBC410802100F06AF816
:103E8000641CE4B2082CEBD370BD0000D400002009
:103E90002DE9FF4F93460098A0F1200ABAF15F0F79
:103EA0000CD22248CEB202883244802A06D88146FB
:103EB0004088C1F307273844402803D9002004B0C4
:103EC000BDE8F08F002525E00AFB075100243BF8F0
:103ED00011801CE008FA04F0000409D599F80210DA
:103EE00099F8000029442044C9B2C0B2039A0BE0FB
:103EF0000398C0B15FF0000299F8021099F8000031
:103F000029442044C9B2C0B2FFF7F6FE641CA642A1
:103F1000E0D86D1CAF42D7D8B9F800103144A9F8E9
:103F200000100098CBE70122E6E700000000002027
:103F300001B584B001214FF0FF3204A88DE80700DD
:103F40000B46002278210248FCF7B2FD05B000BD07
:103F5000D40400200EB54FF0FF3289B28DE807007F
:103F60000123402278210248FCF7A2FD0EBD00008B
:103F7000D4040020F0B51D460E46174604460AE05C
:103F80002B463A463146FFF783FF2178884201D01D
:103F9000C8B2F0BD641C20780028F1D1C0B2F0BDD9
:103FA000D0E9013201699A60D0E901235A604A6878
:103FB000824201D182684A60002202610868401E84
:103FC0000860086870470000044908680A6880694A
:103FD000D26A0968C2F138028A6170475C00002029
:103FE000034B036003F15C000860802010607047A1
:103FF000300C0020044B036003F15C0008604FF4B8
:1040000080701060704700008C0E002000F0BABA7B
:1040100000F0FBBA00F108014FF0FF32C0E90112D5
:10402000C16001610021016070470021016170479A
:1040300030B50B685A1C02D000F1080202E0026998
:1040400004E02246546825689D42FAD953684B60C3
:1040500099608A60516008610168491C016030BD47
:1040600042684A6093688B60936859609160086108
:104070000168491C01607047502080F31188BFF32C
:104080004F8FBFF36F8F0A494868401C4860012872
:104090000CD10848006810F0FF0F07D0502080F3C3
:1040A0001188BFF34F8FBFF36F8FFEE7704700009B
:1040B000C800002004ED00E00849486828B1401E0F
:1040C000486001D180F311887047502080F3118837
:1040D000BFF34F8FBFF36F8FFEE70000C8000020D3
:1040E00070B5002827D0144DA0F108046168E86875
:1040F000014207D1502080F31188BFF34F8FBFF3E7
:104100006F8FFEE722683AB1502080F31188BFF329
:104110004F8FBFF36F8FFEE78143616000F0F8F9C6
:1041200060686968084468602046FFF77DFBBDE869
:10413000704000F047BF70BDB00000204FF0E0209D
:1041400000210161816105494FF47A720968B1FB70
:10415000F2F1491E416107210161704758000020BA
:1041600010B5FCF717F8114910280ED300F1E02024
:1041700090F8F0030A78904207D2502080F311881B
:10418000BFF34F8FBFF36F8FFEE709480068896860
:1041900000F4E060884207D9502080F31188BFF313
:1041A0004F8FBFF36F8FFEE710BD0000C8000020E7
:1041B0000CED00E010B5084B002200BF53F8324070
:1041C0001CB1521C082AF9D310BD43F8321003EB7E
:1041D000C201486010BD00001406002070B51546ED
:1041E0000E460446FFF748FF94F944100020491C8E
:1041F00001D184F8440094F94510491C01D184F898
:104200004500FFF759FFA06B28B92A46314604F153
:10421000240000F0BDF82046BDE87040FFF79EBCCA
:104220001CB51D4C1D4E1E4FDFF8788000254FF049
:10423000FF39CDE9009501231A460421E06A00F018
:1042400033FA009501AB00220821606A00F066FF96
:104250000020FFF7F5FD1A21E06A00F0B3F9A5721E
:10426000E572009501AB00220821E06900F056FFDD
:10427000FDF710FC306840F004003060306820F03A
:104280000200306078687860D8F8001041F00401CE
:10429000C8F8001030BFCCE71800002000700040C4
:1042A0000010024010ED00E008B5084C4FF0FF355B
:1042B000012300951A460221E06A00F0F5F9A06298
:1042C0008007F5D5FEF790FAF2E70000180000200D
:1042D00008B5084C4FF0FF35012300951A461946E2
:1042E000E06A00F0E1F9A062C007F5D0FCF762F9DE
:1042F000F2E700001800002010B5020014D00F48AB
:10430000806B38B1502080F31188BFF34F8FBFF31B
:104310006F8FFEE700F0FCF800211046FFF780F8F1
:1043200000F050FE002807D105494FF0805008608A
:10433000BFF34F8FBFF36F8F10BD00005C000020F4
:1043400004ED00E002498A6A0260496941607047F1
:104350005C00002001490120486270475C00002099
:1043600010B50C4650B1094909681831FFF760FED5
:104370002046BDE810400121FFF752B8502080F3DD
:104380001188BFF34F8FBFF36F8FFEE75C000020F3
:1043900070B514460D4668B10A4909681831FFF72F
:1043A0005FFE0CB14FF0FF3521462846BDE8704056
:1043B000FFF736B8502080F31188BFF34F8FBFF35B
:1043C0006F8FFEE75C00002010B51446030011D08B
:1043D0001048826BB2B1026841F0004191610168FE
:1043E00018461831FFF73CFE2046BDE81040012179
:1043F000FFF716B8502080F31188BFF34F8FBFF33B
:104400006F8FFEE7502080F31188BFF34F8FBFF30B
:104410006F8FFEE75C00002070B5194DAA6BF2B1FA
:1044200041F000410160C4680CB3FFF7B9FD201DE5
:10443000FFF7B6FDE06AA969884200D9A861114971
:1044400000EB800001EB8000211DFFF709FEE06A10
:104450002968C96A884201D90120686270BD50206C
:1044600080F31188BFF34F8FBFF36F8FFEE75020AB
:1044700080F31188BFF34F8FBFF36F8FFEE700000B
:104480005C0000205406002030B587B0002403945F
:1044900005AA04A903A80494FFF7A2FDDDE903011E
:1044A0000094CDE90110002315A11748059A00F0EA
:1044B00066FC164D002868631FD000F0FFFD012840
:1044C00009D0401C19D1502080F31188BFF34F8FC1
:1044D000BFF36F8FFEE7502080F31188BFF34F8F3B
:1044E000BFF36F8F4FF0FF3028630120E8616C61EC
:1044F00007B0BDE8304000F05BB907B030BD000048
:1045000049444C4500000000C13600085C00002012
:104510000248816B491C8163704700005C000020E9
:10452000164810B5816B11B10121416210BD002107
:1045300041628169124A01E0B9B1491E01EB810370
:1045400052F82330002BF7D001EB810302EB8302FA
:1045500002F1080453685B685360A34201D15B68B1
:104560005360DA680260816110BD502080F31188C9
:10457000BFF34F8FBFF36F8FFEE700005C0000209A
:104580005406002070B50E46040009D0300E0FD03E
:10459000502080F31188BFF34F8FBFF36F8FFEE77A
:1045A000502080F31188BFF34F8FBFF36F8FFEE76A
:1045B000FFF762FD256825EA06002060FFF77CFD15
:1045C000284670BD0A4601460023014800F0DABDC6
:1045D0000D40000870B52020FFF7F6FA040005D062
:1045E0000025201D2560FFF715FD2577204670BDAD
:1045F0005022EFF3118182F31188BFF34F8FBFF385
:104600006F8F006881F3118870472DE9F041002712
:10461000884604000AD05FEA18600FD0502080F36B
:104620001188BFF34F8FBFF36F8FFEE7502080F3E9
:104630001188BFF34F8FBFF36F8FFEE7261D04F184
:104640000C05FFF765FF2168F06841EA0801216069
:1046500017E0D0E9001601F07F425301236821F0F2
:104660007F4102D40B4203D10AE031EA030307D1B0
:10467000D20100D50F43216841F00071FFF7CCFE55
:104680003046A842E5D12068B843206000F09AFC8B
:104690002068BDE8F081000013460A460146014843
:1046A00000F070BD114000082DE9F0479A46DDF892
:1046B000209090460D4604004FF0000709D0280EC8
:1046C0000FD0502080F31188BFF34F8FBFF36F8F4F
:1046D000FEE7502080F31188BFF34F8FBFF36F8F39
:1046E000FEE71DB100F076FB40B112E0502080F3F0
:1046F0001188BFF34F8FBFF36F8FFEE7B9F1000F43
:1047000007D0502080F31188BFF34F8FBFF36F8F16
:10471000FEE7FFF7FDFE2668524629463046FFF7C2
:1047200001FA30B1B8F1000F1AD02068A843206018
:1047300016E0B9F1000F13D0B8F1000F01D04FF01F
:104740008077BAF1000F01D047F0806745EA070192
:104750004A46201DFFF738FE00F034FC18B10AE08D
:1047600000F030FC1FE011494FF080500860BFF3AB
:104770004F8FBFF36F8FFFF727FC0646800110D4E1
:10478000FFF77AFC2668524629463046FFF7CAF9F9
:1047900028B1B8F1000F02D02068A8432060FFF7CD
:1047A0008BFC26F07F463046BDE8F08704ED00E044
:1047B0001CB5264908780190FF20087008788DF80C
:1047C00000009DF800009DF8002000F0F0009042ED
:1047D00007D0502080F31188BFF34F8FBFF36F8F46
:1047E000FEE79DF800001A4B00F0500018700720FB
:1047F000986005E09DF8002052008DF80020401ED2
:104800009DF800201206F5D49860032807D05020A8
:1048100080F31188BFF34F8FBFF36F8FFEE74FF424
:1048200040709860019808700A48016841F470016E
:104830000160016841F070410160FFF77FFC0020DA
:104840005860FBF771FC00201CBD000000E400E094
:10485000C800002020ED00E038B5049D18B153B128
:10486000CAB181B120E0502080F31188BFF34F8F8F
:10487000BFF36F8FFEE7502080F31188BFF34F8F97
:10488000BFF36F8FFEE7502080F31188BFF34F8F87
:10489000BFF36F8FFEE739B1502080F31188BFF36B
:1048A0004F8FBFF36F8FFEE750241C46012384F81F
:1048B00046302B460094FEF733FF204638BD0000FB
:1048C00070B50D46040025D0FFF7D6FBD4E90F20C4
:1048D000216802FB001161600021A1632168A160D1
:1048E0000A46D4E90F01401E00FB0121E160214688
:1048F0004FF0FF3001F8440F487004F110008DB103
:10490000FFF788FB04F12400FFF784FBFFF7D4FBDB
:10491000012070BD502080F31188BFF34F8FBFF38B
:104920006F8FFEE721690029F0D000F013FB00280B
:10493000ECD004494FF080500860BFF34F8FBFF3B5
:104940006F8FE3E704ED00E02DE9FF4782B01D46DD
:104950008A464FF00008040003D0BAF1000F08D0D7
:1049600011E0502080F31188BFF34F8FBFF36F8F9A
:10497000FEE7206C38B1502080F31188BFF34F8FD1
:10498000BFF36F8FFEE7022D0AD1E06B012807D03D
:10499000502080F31188BFF34F8FBFF36F8FFEE776
:1049A00000F018FA3F4F4FF000094FF0805648B919
:1049B000049838B1502080F31188BFF34F8FBFF3B4
:1049C0006F8FFEE7FFF758FBA06BE16B884207D3C0
:1049D000022D05D00498D0B1B8F1000F1AD01EE016
:1049E0002A4651462046FEF7F4FD616A19B104F1EA
:1049F000240000F0AFFA20B13E60BFF34F8FBFF349
:104A00006F8FFFF759FB012006B0BDE8F087FFF775
:104A100053FB22E06846FFF795FC4FF00108FFF7D3
:104A20004BFBFFF775FDFFF727FB94F94400401C93
:104A300001D184F8449094F94500401C01D184F8D8
:104A40004590FFF739FB04A9684600F027F930B11B
:104A50002046FFF783F800F0B5FA0020D4E7FFF70F
:104A60000BFBA06BE16B884213D1FFF725FB04F130
:104A700010000499FFF774FC2046FFF76FF800F070
:104A8000A1FA00289ED13E60BFF34F8FBFF36F8F16
:104A900098E7FFF711FB2046FFF760F800F092FA65
:104AA00090E7000004ED00E02DE9F0471F46904636
:104AB0008946040003D0B9F1000F08D011E050205E
:104AC00080F31188BFF34F8FBFF36F8FFEE7206C29
:104AD00038B1502080F31188BFF34F8FBFF36F8F31
:104AE000FEE7022F0AD1E06B012807D0502080F3A7
:104AF0001188BFF34F8FBFF36F8FFEE7FFF730FBD7
:104B00005020EFF3118680F31188BFF34F8FBFF36E
:104B10006F8FA06BE16B884206D3022F04D0002078
:104B200086F31188BDE8F08794F945503A46494626
:104B30002046FEF74EFD681C04D06D1C84F84550DD
:104B40000120EDE7606A0028FAD004F1240000F0AB
:104B500001FA0028F4D0B8F1000FF1D00121C8F813
:104B60000010EDE72DE9F747002683B08A460400E0
:104B700003D0BAF1000F08D011E0502080F3118863
:104B8000BFF34F8FBFF36F8FFEE7206C38B150201B
:104B900080F31188BFF34F8FBFF36F8FFEE700F0F4
:104BA00019F9DFF8F4804FF000094FF0805748B949
:104BB000059838B1502080F31188BFF34F8FBFF3B1
:104BC0006F8FFEE7FFF758FAA56BC5B15146204637
:104BD000FEF7ECFC6D1EA563206950B104F11000D6
:104BE00000F0B8F928B1C8F80070BFF34F8FBFF3D9
:104BF0006F8FFFF761FA012006B0BDE8F0870598D6
:104C000008B11EB106E0FFF757FA27E06846FFF744
:104C100099FB0126FFF750FAFFF77AFCFFF72CFA11
:104C200094F94400401C01D184F8449094F9450063
:104C3000401C01D184F84590FFF73EFA05A968466B
:104C400000F02CF8002820460AD0FEF787FF00F07D
:104C5000B9F92046FEF72AFE0028B3D00020CBE7A2
:104C6000FEF724FE90B104F124000599FFF778FBCC
:104C70002046FEF773FF00F0A5F90028A2D1C8F87E
:104C80000070BFF34F8FBFF36F8F9BE72046FEF797
:104C900065FF00F097F995E704ED00E02DE9F0419C
:104CA0000C4605000FD0B4B1FFF7E6F91C4B5A696A
:104CB0006E681868911B002790F85A0098B1186820
:104CC00080F85A701AE0502080F31188BFF34F8F9C
:104CD000BFF36F8FFEE7502080F31188BFF34F8F33
:104CE000BFF36F8FFEE72068B0F1FF3F08D0D5F823
:104CF00000C09B6A9C4509D0964207D8012400E079
:104D00000024FFF7D9F92046BDE8F081884205D993
:104D1000401A20602846FFF715FBF1E72760EDE712
:104D20005C0000202DE9FF5F8346DDE90E87994690
:104D300016468A469000FEF747FF05001CD05C200F
:104D4000FEF742FF040014D00020256384F85900C8
:104D5000CDE90240CDE900874B46324651465846E0
:104D6000FEF7EFFC2046FEF78DFB012004B0BDE806
:104D7000F09F2846FFF7B4F94FF0FF30F6E7F0B5A3
:104D800085B0DDE90B640A9DA6B1DCB15C27009714
:104D90002663022684F85960002604AFCDE9024656
:104DA000CDE90057FEF7CDFC2046FEF76BFB0498DB
:104DB00005B0F0BD502080F31188BFF34F8FBFF3D3
:104DC0006F8FFEE7502080F31188BFF34F8FBFF342
:104DD0006F8FFEE70548C16919B1806B18B10020DB
:104DE0007047012070470220704700005C000020DF
:104DF00001484069704700005C00002010B5FFF7D3
:104E0000AFF90148406910BD5C0000202DE9F04178
:104E10002E4C0027A06B40B1206A401C2062606AC3
:104E200000B101273846BDE8F0816669761C6661ED
:104E300013D16068006838B1502080F31188BFF347
:104E40004F8FBFF36F8FFEE76068A1686160A0605D
:104E5000A06A401CA062FEF7F7FD206BDFF87080AF
:104E6000864209D36068006880B16068C068C56820
:104E7000686886420DD220632068C06A00EB80011A
:104E800058F821000128CAD90127C8E74FF0FF30A0
:104E9000F1E7281DFFF784F8A86A18B105F118009A
:104EA000FFF77EF8E86AA169884200D9A06100EBAB
:104EB000800108EB8100291DFFF7D2F8E86A21681C
:104EC000C96A8842CED30127CCE700005C000020ED
:104ED0005406002070B504004FF0000133D01B4D84
:104EE0002868844207D0502080F31188BFF34F8F89
:104EF000BFF36F8FFEE7206D38B1401E2065E36C75
:104F0000E26A9A421FD040B11DE0502080F3118820
:104F1000BFF34F8FBFF36F8FFEE7201DFFF740F801
:104F2000E06CE062C0F13800A061E06AA9698842E3
:104F300000D9A861064900EB800001EB8000211D2B
:104F4000FFF78EF80121084670BD00005C000020CC
:104F50005406002070B5C068C46854B104F118004C
:104F60000646FFF71DF8144DA86B50B131461348A3
:104F700015E0502080F31188BFF34F8FBFF36F8F80
:104F8000FEE7201DFFF70CF8E06AA969884200D906
:104F9000A8610B4900EB800001EB8000211DFFF7A9
:104FA0005FF8E06A2968C96A884202D9012068620C
:104FB00070BD002070BD00005C000020DC0A0020F5
:104FC000540600202DE9F0472C4D00242746A86BFD
:104FD00038B1FFF751F8A86B401EA863A86B40B129
:104FE00046E0502080F31188BFF34F8FBFF36F8FDF
:104FF000FEE72969224E0120D1B3A6F591698046CA
:105000003068E0B1F068C46804F11800FEF7C8FF2A
:10501000201DFEF7C5FFE06AA969884200D9A86192
:1050200000EB800109EB8100211DFFF719F8E06A10
:105030002968C96A8842E3D3C5F82480E0E70CB147
:10504000FEF702FD2C6A4CB14FEA0806FFF7DEFEC0
:1050500000B16E62641EF9D100202862686A38B11E
:105060000849012738070860BFF34F8FBFF36F8FE0
:10507000FFF722F83846BDE8F08700005C0000200A
:10508000DC0A002004ED00E02DE9FC4781461E46C5
:105090001746884630200A9DFEF796FD04000AD088
:1050A000CDE9005433463A4641464846FEF799FB5F
:1050B000002084F82C002046BDE8FC8710B586B09F
:1050C000FEF748FA114CA068B8B100200390049094
:1050D00005AA04A903A8FEF78DFFDDE9032102203C
:1050E0008DE8070000230AA10B48059AFFF747FE49
:1050F000E06010B106B0012010BD502080F311888F
:10510000BFF34F8FBFF36F8FFEE7000098000020C2
:10511000546D722053766300393B00082DE9FF413E
:105120001E46134602000A9D4FF0000016D0144C94
:10513000A768002F0FD0CDE900130292062917DAD5
:10514000FFF748FE02284FF000030FD00022694607
:10515000A068FFF7F9FB04B0BDE8F081502080F3B0
:105160001188BFF34F8FBFF36F8FFEE72A46EEE73C
:105170000023324669463846FFF796FCEBE700000D
:10518000980000201FB51C466FF00103CDE90030E8
:10519000CDE9021204480023224669468068FFF7E1
:1051A00083FC04B010BD0000980000200000000047
:1051B00000000000000000000000000000000000EF
:1051C000001000100010001000100010000000106F
:1051D0000000000000280028002800000000000057
:1051E000000000000000000000240024007C0024D7
:1051F0000048007C004800480000000000380054CF
:105200000050003800140054005400380010000012
:1052100000200054005800300028005400140008FA
:105220000000000000100028002800100034004892
:1052300000480034000000000010001000100000C2
:105240000000000000000000000000000008001046
:105250000020002000200020002000200010000876
:1052600000200010000800080008000800080008DE
:10527000001000200010003800100028000000007E
:1052800000000000000000000000000000100010FE
:10529000007C001000100000000000000000000072
:1052A00000000000000000000000001000100010CE
:1052B00000000000000000000000003800000000B6
:1052C00000000000000000000000000000000000DE
:1052D000000000100000000000080008001000108E
:1052E00000100010002000200000000000380044E2
:1052F0000044005400440044004400380000000012
:1053000000100030005000100010001000100010BD
:1053100000000000003800440044000400080010B1
:105320000020007C00000000003800440004001849
:1053300000040004004400380000000000080018C9
:10534000002800280048007C000800080000000039
:10535000007C004000400078000400040044003855
:105360000000000000380044004000780044004481
:105370000044003800000000007C00040008001019
:105380000010002000200020000000000038004431
:10539000004400380044004400440038000000008D
:1053A0000038004400440044003C0004004400383D
:1053B00000000000000000000010000000000000DD
:1053C00000000010000000000000000000000010BD
:1053D000000000000000001000100010000000009D
:1053E000000C003000400030000C00000000000005
:1053F000000000000000007C0000007C00000000B5
:105400000000000000000000006000180004001808
:1054100000600000000000000038004400040008A4
:1054200000100010000000100000000000380044D0
:10543000004C0054005C00400040003800000000B8
:1054400000100028002800280028007C00440044A8
:10545000000000000078004400440078004400444C
:105460000044007800000000003800440040004084
:105470000040004000440038000000000070004878
:105480000044004400440044004800700000000054
:10549000007C00400040007C004000400040007C58
:1054A00000000000007C0040004000780040004008
:1054B0000040004000000000003800440040004070
:1054C000005C004400440038000000000044004438
:1054D0000044007C004400440044004400000000FC
:1054E00000380010001000100010001000100038EC
:1054F0000000000000040004000400040004000494
:1055000000440038000000000044004800500060E3
:1055100000500048004800440000000000400040E7
:1055200000400040004000400040007C00000000BF
:105530000044006C006C00540044004400440044EB
:105540000000000000440064006400540054004C5B
:10555000004C0044000000000038004400440044B7
:10556000004400440044003800000000007800447B
:10557000004400440078004000400040000000006B
:105580000038004400440044004400440054003803
:105590000004000000780044004400440078004803
:1055A0000048004400000000003800440040003083
:1055B000000800040044003800000000007C0010D7
:1055C000001000100010001000100010000000007B
:1055D00000440044004400440044004400440038B7
:1055E0000000000000440044004400280028002877
:1055F000001000100000000000440044005400545B
:105600000054006C0028002800000000004400281E
:1056100000280010001000280028004400000000AE
:105620000044004400280028001000100010001062
:1056300000000000007C00040008001000100020A2
:105640000040007C00000000001800100010001056
:1056500000100010001000100010001800200020A2
:1056600000100010001000100008000800000000EA
:10567000003000100010001000100010001000108A
:105680000010003000100028002800440000000036
:10569000000000000000000000000000000000000A
:1056A0000000000000000000000000FE00200010CC
:1056B00000000000000000000000000000000000EA
:1056C0000000000000380044003C0044004C00345E
:1056D0000000000000400040005800640044004406
:1056E0000064005800000000000000000038004482
:1056F00000400040004400380000000000040004A6
:105700000034004C00440044004C00340000000011
:105710000000000000380044007C004000440038D5
:1057200000000000000C0010007C001000100010B1
:105730000010001000000000000000000034004CC9
:1057400000440044004C0034000400780040004055
:10575000005800640044004400440044000000007D
:105760000010000000700010001000100010001069
:105770000000000000100000007000100010001079
:1057800000100010001000E00040004000480050F1
:10579000006000500048004400000000007000104D
:1057A0000010001000100010001000100000000099
:1057B00000000000007800540054005400540054CD
:1057C0000000000000000000005800640044004495
:1057D00000440044000000000000000000380044C5
:1057E00000440044004400380000000000000000B5
:1057F0000058006400440044006400580040004029
:10580000000000000034004C00440044004C003410
:105810000004000400000000005800640040004044
:10582000004000400000000000000000003800447C
:105830000030000800440038000000000020002074
:105840000078002000200020002000180000000048
:10585000000000000044004400440044004C0034B8
:105860000000000000000000004400440028002860
:105870000028001000000000000000000054005448
:105880000054006C00280028000000000000000008
:105890000044002800100010002800440000000010
:1058A0000000000000440044002800280010001000
:1058B0000010006000000000007C000800100020C4
:1058C0000040007C000000000018001000100010D4
:1058D0000020002000100010001000180010001020
:1058E0000010001000100010001000100010001038
:1058F0000030001000100010000800080010001018
:10590000001000300000000000000074004C000097
:105910000000000000000000000000000000000087
:105920000000000000000000000000000000000077
:105930000000000000000000000000000000000C5B
:10594000000C000C000C000C000C000C000C000CF7
:10595000000C000C0000000C000C00000000000017
:105960000000001B001B001B001B001B00000000B0
:105970000000000000000000000000000000000027
:105980000000000000008019801980198019C07F74
:10599000C07F80190033C07FC07F003300330033E5
:1059A00000330000000000000000001E003F807572
:1059B00080650074003C001E0007800580658065DE
:1059C0008075003F001E000400040000000000700D
:1059D00000D840D8C0D880D900730006000C801BC6
:1059E000C036C066C046C00680030000000000004C
:1059F0000000001E003F003300330033001E000C87
:105A0000C03CC066806380618063C03E801C000033
:105A1000000000000000000C000C000C000C000C4A
:105A20000000000000000000000000000000000076
:105A300000000000000000008000000100030006DC
:105A400000060004000C000C000C000C000C000C04
:105A50000004000600060003000180000020001082
:105A60000018000C000C00040006000600060006EA
:105A7000000600060004000C000C001800100020B6
:105A80000000000C002D003F001E0033000000004D
:105A90000000000000000000000000000000000006
:105AA00000000000000000000000000C000C000CD2
:105AB000000CC0FFC0FF000C000C000C000C00002C
:105AC00000000000000000000000000000000000D6
:105AD00000000000000000000000000000000000C6
